:100000000C9434000C9451000C9451000C94510049
:100010000C9451000C9451000C9451000C9451001C
:100020000C9451000C9451000C9451000C94DE007F
:100030000C9451000C9451000C9451000C945100FC
:100040000C9451000C9451000C9471010C949D017E
:100050000C9451000C9451000C9451000C945100DC
:100060000C9451000C94510011241FBECFEFD8E026
:10007000DEBFCDBF11E0A0E0B1E0E8E2F6E002C0F3
:1000800005900D92A630B107D9F711E0A6E0B1E0D6
:1000900001C01D92AF34B107E1F70E9453000C94E8
:1000A00012030C940000CF92DF92EF92FF920F9315
:1000B0001F93CF93DF93389840983A9842980E94C4
:1000C000CD000E94DD0078940E946B0182E00E94C6
:1000D00046018AE10E94030100E010E090E4C92E8D
:1000E0009CE9D92E80E1E82E87E2F82EC8ECD0E01A
:1000F000309B25C0002319F5C6010197F1F7309B0D
:10010000F7CFC7010197F1F7309BF2CF0E946F0242
:100110006091040170E00E94F701682F6F5F81E039
:100120000E94230120E008C0FE013197F1F70197FA
:10013000D9F72F5F2E3119F088EE93E0F5CF329B7F
:1001400025C0112319F5C6010197F1F7329BD0CFD5
:10015000C7010197F1F7329BCBCF0E946F026091EC
:10016000050170E00E94F701682F6F5F82E00E9436
:10017000230120E008C0FE013197F1F70197D9F77C
:100180002F5F2E3119F088EE93E0F5CF06B10170A4
:1001900016B1169516951170ABCF8AE08093810049
:1001A00087EE93E09093890080938800EFE6F0E07B
:1001B0008081826080837894089508951F920F92C1
:1001C0000FB60F9211248F939F93AF93BF9380919B
:1001D0004B0190914C01A0914D01B0914E010196BF
:1001E000A11DB11D80934B0190934C01A0934D0133
:1001F000B0934E01BF91AF919F918F910F900FBE21
:100200000F901F9018951F93182F8EE70E94E10101
:100210008FEF0E94E10186E00E94E10186E00E94EA
:10022000E10180E00E94E10180E00E94E101812F74
:100230000E94E1018FEE0E94E10180E29EE40197BD
:10024000F1F71F9108950F931F93182F062F8EE734
:100250000E94E1018FEF0E94E10186E00E94E1012E
:100260008FE00E94E10180E00E94E101812F0E9465
:10027000E101802F0E94E1018FEE0E94E10180E206
:100280009EE40197F1F71F910F9108951F93182F86
:100290008EE70E94E1018FEF0E94E10186E00E945B
:1002A000E10189E00E94E10180E00E94E10180E03B
:1002B0000E94E101812F0E94E1018FEE0E94E10185
:1002C00080ED97E028EC30E0F9013197F1F70197E4
:1002D000D9F71F91089583E390E00E94C7017894B5
:1002E00008951F920F920FB60F9211242F938F93A0
:1002F0009F93EF93FF939091C0002091C600E091EF
:100300004801EF5FEF7180914901E81711F482E035
:1003100008C0892F8871E0934801F0E0EA5DFE4F44
:10032000208380934A01FF91EF919F918F912F91AC
:100330000F900FBE0F901F9018951F920F920FB63F
:100340000F9211248F939F93EF93FF939091460107
:1003500080914701981769F0E0914701EF5FEF71D5
:10036000E0934701F0E0EA5FFE4F80818093C60092
:1003700005C08091C1008F7D8093C100FF91EF91F6
:100380009F918F910F900FBE0F901F9018959C0119
:1003900010924601109247011092480110924901B3
:1003A00097FF04C082E08093C0003F773093C50080
:1003B0002093C40088E98093C10086E08093C20046
:1003C0000895282F909146019F5F9F71809147016A
:1003D0009817E1F3E92FF0E0EA5FFE4F2083909356
:1003E00046018091C10080628093C100089597FB0F
:1003F000092E07260AD077FD04D00CD006D00020A5
:100400001AF4709561957F4F0895F6F79095819550
:100410009F4F0895AA1BBB1B51E107C0AA1FBB1F1A
:10042000A617B70710F0A61BB70B881F991F5A9580
:10043000A9F780959095BC01CD010895A0E0B0E0AA
:10044000E4E2F2E00C94C102EC01A880B980CA8019
:10045000DB80A114B104C104D10441F484E2A82ECC
:1004600089EDB82E8BE5C82E87E0D82EC601B501E0
:100470002DE133EF41E050E00E949E0227EA31E493
:1004800040E050E00E947F027B018C01C601B50173
:100490002DE133EF41E050E00E949E02CA01B90114
:1004A0002CEE34EF4FEF5FEF0E947F026E0D7F1D49
:1004B000801F911F97FF04C061507040804090489A
:1004C000688379838A839B839B013F77C901CDB77A
:1004D000DEB7EAE00C94DD020E941E02089580E07F
:1004E00091E00E941E020895A0E0B0E08093000118
:1004F00090930101A0930201B09303010895629FBC
:10050000D001739FF001829FE00DF11D649FE00D0B
:10051000F11D929FF00D839FF00D749FF00D659F6C
:10052000F00D9927729FB00DE11DF91F639FB00D6B
:10053000E11DF91FBD01CF011124089597FB092E7C
:1005400005260ED057FD04D04BD00AD0001C38F43D
:1005500050954095309521953F4F4F4F5F4F0895EF
:10056000F6F790958095709561957F4F8F4F9F4FCF
:1005700008952F923F924F925F926F927F928F9247
:100580009F92AF92BF92CF92DF92EF92FF920F9322
:100590001F93CF93DF93CDB7DEB7CA1BDB0B0FB62C
:1005A000F894DEBF0FBECDBF09942A8839884888E9
:1005B0005F846E847D848C849B84AA84B984C8847F
:1005C000DF80EE80FD800C811B81AA81B981CE0F76
:1005D000D11D0FB6F894DEBF0FBECDBFED0108955B
:1005E000A1E21A2EAA1BBB1BFD010DC0AA1FBB1F37
:1005F000EE1FFF1FA217B307E407F50720F0A21BA9
:10060000B30BE40BF50B661F771F881F991F1A9415
:1006100069F760957095809590959B01AC01BD013F
:08062000CF010895F894FFCF0B
:06062800010000000401C6
:00000001FF
